:100000000C9467000C948F000C948F000C948F005C
:100010000C948F000C948F000C948F000C948F0024
:100020000C948F000C948F000C948F000C94960D00
:100030000C948F000C948F000C948F000C948F0004
:100040000C94DE130C948F000C94530E0C948F00C0
:100050000C948F000C948F000C948F000C948F00E4
:100060000C948F000C948F000000000024002700E7
:100070002A0000000000250028002B0000000000DE
:1000800023002600290004040404040404040202DA
:100090000202020203030303030301020408102007
:1000A0004080010204081020010204081020000012
:1000B0000007000201000003040600000000000029
:1000C0000000C9000308610A6610C2005A0A112420
:1000D0001FBECFEFD8E0DEBFCDBF12E0A0E0B1E0A1
:1000E000EEE4F0E402C005900D92A238B107D9F712
:1000F00015E0A2E8B2E001C01D92A63FB107E1F70A
:1001000010E0CAECD0E004C02297FE010E94162045
:10011000C23CD107C9F70E94D7130C941A200C9443
:10012000000080ED95E00E941F100895682F80ED7B
:1001300095E00E94531080E090E0089580ED95E0F6
:1001400040E051EE60E070E00E94F00E0895F894F7
:10015000FFCF8130910561F46F5F7F4F91F483E8A9
:1001600092E00E949C0784E992E00E94970B089518
:10017000892B39F46F5F7F4F21F483E892E00E946E
:100180007807089580E090E06FEF7FEF0E94A9006C
:10019000089581E090E06FEF7FEF0E94A90008953D
:1001A000EF92FF920F931F93CF93DF938AE992E030
:1001B0000E945B086AE070E080E090E00E945A14C0
:1001C00068EC70E080E090E00E945A1480918C020C
:1001D00090918D02429790938D0280938C025BE404
:1001E000E52EF12C84E992E0B7010E94A80C68E2A8
:1001F00070E080E090E00E945A1481E00E94CB14ED
:100200009C01C0918C02D0918D0280918E029091C0
:100210008F02C817D90780F5CE01880F991F880F64
:10022000991F00918A0210918B02080F191FB901C2
:10023000882777FD8095982F0E94DA1920E030E01A
:1002400040EA5BE30E94D4179B01AC0160E070E0E0
:1002500082E892E40E94CE1820E030E040E85FE3BC
:100260000E947617F80160837183828393832196BD
:10027000D0938D02C0938C0282E090E0E80EF91ECC
:100280009FE6E916F10409F0ADCF84E992E06BE452
:1002900070E00E94A80C8AE992E06091820243E833
:1002A00052E00E944B09DF91CF911F910F91FF9077
:1002B000EF90089580919702882341F48DE061E0EA
:1002C0000E94621581E08093970208958DE060E0BE
:1002D0000E9462151092970208950E945A01089593
:1002E0008AE992E00E949E0080E090E0A0E0B0E009
:1002F0008093900290939102A0939202B093930204
:100300008DE061E00E94421588E490E00E94FA1CB2
:1003100022E130E030938D0220938C0280938A0298
:1003200090938B0230938F0220938E0221E02093D2
:1003300089020E94A41D4091900250919102609107
:1003400092027091930220918C0230918D02A091C3
:100350008E02B0918F022A173B07A8F4C901880FBB
:10036000991F880F991FE0918A02F0918B02E80F84
:10037000F91F40835183628373832F5F3F4F309314
:100380008D0220938C0240919002509191026091D5
:1003900092027091930220918C0230918D022A1763
:1003A0003B07A8F4C901880F991F880F991FE09196
:1003B0008A02F0918B02E80FF91F40835183628318
:1003C00073832F5F3F4F30938D0220938C024091B7
:1003D000900250919102609192027091930220914B
:1003E0008C0230918D022A173B07A8F4C901880FAF
:1003F000991F880F991FE0918A02F0918B02E80FF4
:10040000F91F40835183628373832F5F3F4F309383
:100410008D0220938C024091900250919102609144
:1004200092027091930220918C0230918D022A17D2
:100430003B07A8F4C901880F991F880F991FE09105
:100440008A02F0918B02E80FF91F40835183628387
:1004500073832F5F3F4F30938D0220938C02409126
:1004600090025091910260919202709193022091BA
:100470008C0230918D022A173B07A8F4C901880F1E
:10048000991F880F991FE0918A02F0918B02E80F63
:10049000F91F40835183628373832F5F3F4F3093F3
:1004A0008D0220938C0240919002509191026091B4
:1004B00092027091930220918C0230918D022A1742
:1004C0003B07A8F4C901880F991F880F991FE09175
:1004D0008A02F0918B02E80FF91F408351836283F7
:1004E00073832F5F3F4F30938D0220938C02409196
:1004F000900250919102609192027091930220912A
:100500008C0230918D022A173B07A8F4C901880F8D
:10051000991F880F991FE0918A02F0918B02E80FD2
:10052000F91F40835183628373832F5F3F4F309362
:100530008D0220938C024091900250919102609123
:1005400092027091930220918C0230918D022A17B1
:100550003B07A8F4C901880F991F880F991FE091E4
:100560008A02F0918B02E80FF91F40835183628366
:1005700073832F5F3F4F30938D0220938C02409105
:100580009002509191026091920270919302209199
:100590008C0230918D022A173B07A8F4C901880FFD
:1005A000991F880F991FE0918A02F0918B02E80F42
:1005B000F91F40835183628373832F5F3F4F3093D2
:1005C0008D0220938C024091900250919102609193
:1005D00092027091930220918C0230918D022A1721
:1005E0003B07A8F4C901880F991F880F991FE09154
:1005F0008A02F0918B02E80FF91F408351836283D6
:1006000073832F5F3F4F30938D0220938C02409174
:100610009002509191026091920270919302209108
:100620008C0230918D022A173B07A8F4C901880F6C
:10063000991F880F991FE0918A02F0918B02E80FB1
:10064000F91F40835183628373832F5F3F4F309341
:100650008D0220938C024091900250919102609102
:1006600092027091930220918C0230918D022A1790
:100670003B07A8F4C901880F991F880F991FE091C3
:100680008A02F0918B02E80FF91F40835183628345
:1006900073832F5F3F4F30938D0220938C024091E4
:1006A0009002509191026091920270919302209178
:1006B0008C0230918D022A173B07A8F4C901880FDC
:1006C000991F880F991FE0918A02F0918B02E80F21
:1006D000F91F40835183628373832F5F3F4F3093B1
:1006E0008D0220938C024091900250919102609172
:1006F00092027091930220918C0230918D022A1700
:100700003B07A8F4C901880F991F880F991FE09132
:100710008A02F0918B02E80FF91F408351836283B4
:1007200073832F5F3F4F30938D0220938C02409153
:1007300090025091910260919202709193022091E7
:100740008C0230918D022A173B07A8F4C901880F4B
:10075000991F880F991FE0918A02F0918B02E80F90
:10076000F91F40835183628373832F5F3F4F309320
:100770008D0220938C0240919002509191026091E1
:1007800092027091930220918C0230918D022A176F
:100790003B07A8F4C901880F991F880F991FE091A2
:1007A0008A02F0918B02E80FF91F40835183628324
:1007B00073832F5F3F4F30938D0220938C024091C3
:1007C0009002509191026091920270919302209157
:1007D0008C0230918D022A173B07A8F4C901880FBB
:1007E000991F880F991FE0918A02F0918B02E80F00
:1007F000F91F40835183628373832F5F3F4F309390
:100800008D0220938C024091900250919102609150
:1008100092027091930220918C0230918D022A17DE
:100820003B07A8F4C901880F991F880F991FE09111
:100830008A02F0918B02E80FF91F40835183628393
:1008400073832F5F3F4F30938D0220938C02209152
:100850008C0230918D0221513040C9010197909353
:100860008D0280938C024091900250919102609190
:100870009202709193028A179B0790F4880F991F38
:10088000880F991FE0918A02F0918B02E80FF91FFF
:10089000408351836283738330938D0220938C0253
:1008A0004091900250919102609192027091930256
:1008B00020918C0230918D022A173B07A8F4C901C0
:1008C000880F991F880F991FE0918A02F0918B027F
:1008D000E80FF91F40835183628373832F5F3F4F7B
:1008E00030938D0220938C0240919002509191029E
:1008F000609192027091930220918C0230918D024E
:100900002A173B07A8F4C901880F991F880F991F60
:10091000E0918A02F0918B02E80FF91F4083518326
:10092000628373832F5F3F4F30938D0220938C023D
:1009300040919002509191026091920270919302C5
:1009400020918C0230918D022A173B07A8F4C9012F
:10095000880F991F880F991FE0918A02F0918B02EE
:10096000E80FF91F40835183628373832F5F3F4FEA
:1009700030938D0220938C0240919002509191020D
:10098000609192027091930220918C0230918D02BD
:100990002A173B07A8F4C901880F991F880F991FD0
:1009A000E0918A02F0918B02E80FF91F4083518396
:1009B000628373832F5F3F4F30938D0220938C02AD
:1009C0004091900250919102609192027091930235
:1009D00020918C0230918D022A173B07A8F4C9019F
:1009E000880F991F880F991FE0918A02F0918B025E
:1009F000E80FF91F40835183628373832F5F3F4F5A
:100A000030938D0220938C0240919002509191027C
:100A1000609192027091930220918C0230918D022C
:100A20002A173B07A8F4C901880F991F880F991F3F
:100A3000E0918A02F0918B02E80FF91F4083518305
:100A4000628373832F5F3F4F30938D0220938C021C
:100A500040919002509191026091920270919302A4
:100A600020918C0230918D022A173B07A8F4C9010E
:100A7000880F991F880F991FE0918A02F0918B02CD
:100A8000E80FF91F40835183628373832F5F3F4FC9
:100A900030938D0220938C024091900250919102EC
:100AA000609192027091930220918C0230918D029C
:100AB0002A173B07A8F4C901880F991F880F991FAF
:100AC000E0918A02F0918B02E80FF91F4083518375
:100AD000628373832F5F3F4F30938D0220938C028C
:100AE0004091900250919102609192027091930214
:100AF00020918C0230918D022A173B07A8F4C9017E
:100B0000880F991F880F991FE0918A02F0918B023C
:100B1000E80FF91F40835183628373832F5F3F4F38
:100B200030938D0220938C0240919002509191025B
:100B3000609192027091930220918C0230918D020B
:100B40002A173B07A8F4C901880F991F880F991F1E
:100B5000E0918A02F0918B02E80FF91F40835183E4
:100B6000628373832F5F3F4F30938D0220938C02FB
:100B70004091900250919102609192027091930283
:100B800020918C0230918D022A173B07A8F4C901ED
:100B9000880F991F880F991FE0918A02F0918B02AC
:100BA000E80FF91F40835183628373832F5F3F4FA8
:100BB00030938D0220938C024091900250919102CB
:100BC000609192027091930220918C0230918D027B
:100BD0002A173B07A8F4C901880F991F880F991F8E
:100BE000E0918A02F0918B02E80FF91F4083518354
:100BF000628373832F5F3F4F30938D0220938C026B
:100C000040919002509191026091920270919302F2
:100C100020918C0230918D022A173B07A8F4C9015C
:100C2000880F991F880F991FE0918A02F0918B021B
:100C3000E80FF91F40835183628373832F5F3F4F17
:100C400030938D0220938C0240919002509191023A
:100C5000609192027091930220918C0230918D02EA
:100C60002A173B07A8F4C901880F991F880F991FFD
:100C7000E0918A02F0918B02E80FF91F40835183C3
:100C8000628373832F5F3F4F30938D0220938C02DA
:100C90004091900250919102609192027091930262
:100CA00020918C0230918D022A173B07A8F4C901CC
:100CB000880F991F880F991FE0918A02F0918B028B
:100CC000E80FF91F40835183628373832F5F3F4F87
:100CD00030938D0220938C024091900250919102AA
:100CE000609192027091930220918C0230918D025A
:100CF0002A173B07A8F4C901880F991F880F991F6D
:100D0000E0918A02F0918B02E80FF91F4083518332
:100D1000628373832F5F3F4F30938D0220938C0249
:100D200040919002509191026091920270919302D1
:100D300020918C0230918D022A173B07A8F4C9013B
:100D4000880F991F880F991FE0918A02F0918B02FA
:100D5000E80FF91F40835183628373832F5F3F4FF6
:100D600030938D0220938C028AE992E060E071E07A
:100D70000E946C098093820284E992E064E070E052
:100D80000E948F0D8DE061E00E946215089584E05D
:100D900090E00895EF92FF920F931F93DF93CF930C
:100DA00000D000D0CDB7DEB78C01DC0116968C9157
:100DB00016971796FC9017971896EC90189788231B
:100DC000A9F019962D913C911A97220F331F220FEB
:100DD000331F8F2D9E2DA9010E945D1EF8012185D4
:100DE0003285220F331F220F331F23C0FB01819155
:100DF0009191A191B191AC0189839A83AB83BC831A
:100E00009C01D8011A965C934E931997220F331FB9
:100E1000220F331F8F2D9E2DBF01A9010E945D1E41
:100E2000F80121853285220F331F220F331F2C5FDB
:100E30003F4FC9010F900F900F900F90CF91DF910E
:100E40001F910F91FF90EF900895CF93DF93EC01E6
:100E5000FB018E81882399F029853A85220F331F63
:100E6000220F331F6F817885CF01A9010E945D1E7B
:100E700029853A85220F331F220F331F1BC0898516
:100E80009A8591838083AB014C5F5F4F29853A85BA
:100E9000220F331F220F331F6F817885CA01A901EA
:100EA0000E945D1E29853A85220F331F220F331FB2
:100EB0002C5F3F4FC901DF91CF9108950F931F938E
:100EC0008C010E94DE078BE191E0F8019183808321
:100ED0001F910F9108950F931F938C010E94DE07BD
:100EE0008BE191E0F801918380831F910F91089528
:100EF0000F931F938C018BE191E0F8019183808324
:100F0000878190850E94A41DC8010E94EA071F9155
:100F10000F9108950F931F938C018BE191E0F801DD
:100F200091838083878190850E94A41DC8010E94BF
:100F3000EA071F910F910895EF92FF920F931F936D
:100F40008C010E94DE078BE191E0F80191838083A0
:100F500081E08683B2E1EB2EF12CF486E38688E40F
:100F600090E00E94FA1CF80187839087F286E18660
:100F70001F910F91FF90EF900895EF92FF920F93C2
:100F80001F938C010E94DE078BE191E0F8019183B1
:100F9000808381E0868382E1E82EF12CF486E3866B
:100FA00088E490E00E94FA1CF80187839087F2861B
:100FB000E1861F910F91FF90EF900895FC0185E26B
:100FC00091E0918380830895FC0185E291E0918313
:100FD00080830895FC0185E291E0918380830895E8
:100FE000FC0185E291E0918380830895FC01E55A3C
:100FF000FE4F11821082E25DFE4F1192119210821B
:1010000008950895089586E990E061E970E00E94EE
:101010007E1E90939902809398020895EF92FF921A
:101020000F93DF93CF9300D0CDB7DEB77B015A8308
:101030004983822F609198027091990290E00E94FA
:10104000CA1E6091980270919902802F90E00E94D0
:10105000CA1E2091980230919902CE01019662E059
:1010600070E041E050E00E94F61E69817A81209193
:10107000980230919902C70141E050E00E94F61EAB
:101080000F900F90CF91DF910F91FF90EF90089507
:101090000F931F938C0166EC72E00E94DE0AAC0194
:1010A000C801045D1F4FB8012FEF00E00E940E0839
:1010B0001F910F9108955F926F927F928F929F92EE
:1010C000AF92BF92CF92DF92EF92FF920F931F9356
:1010D000CF93DF93EC0180919802909199020E9446
:1010E00091009C01E1E66E2EE1E07E2E6C0E7D1EED
:1010F00079E8A72E72E0B72EAC0EBD1E6BE8E62E87
:1011000062E0F62EEC0EFD1E552453948E01055A16
:101110001E4F59E5C52E51E0D52ECC0EDD1E48E5FB
:10112000842E41E0942E8C0E9D1EA0C0D5018D9181
:101130009C911197FE01E80FF91FE35AFE4F20839F
:101140009C012F5F3F4F2D933C93F70180818823B3
:10115000D9F524303105C1F55082D601ED91FC91CD
:1011600082819381D80111969C938E9380818150C6
:101170008E3F38F41D921C92F50111821082D70126
:101180001C92D601ED91FC9180818823E9F4918134
:10119000F4018081981740F0D8011D921C92F5014E
:1011A00011821082D7011C92D601ED91FC918281AF
:1011B00093818C52914040F0F80111821082D50148
:1011C0001D921C92F7011082D7018C91813009F099
:1011D00046C0F8018081918101979183808397FFB8
:1011E0003EC011821082D5011D921C92F70110821F
:1011F000D601ED91FC9180818F3F19F4CE010E94C0
:101200004808D601ED91FC918081882341F5E18168
:10121000F0E03C96EE0FFF1FEC0FFD1FA081B181A7
:10122000ED91FC9111970280F381E02DCD01B30186
:101230000995D601ED91FC91E181F0E03296DF0154
:10124000AA0FBB1FAC0FBD1F3A96EE0FFF1FEC0F8E
:10125000FD1F2D913C9180819181F901099580912B
:101260009802909199020E9491009C01BFEF2F3F3C
:101270003B0709F05BCFDF91CF911F910F91FF905A
:10128000EF90DF90CF90BF90AF909F908F907F9026
:101290006F905F900895CF92DF92EF92FF920F933D
:1012A0006C01062FDA01FCE2EF2EF12CE80EF91E9C
:1012B000ED91FC910190F081E02DCA01B7010995F3
:1012C000AC01C601B70120E00E940E080F91FF900B
:1012D000EF90DF90CF9008950E94680A0895CF9212
:1012E000DF92EF92FF920F931F938C017A016901B5
:1012F0000E94680AE82FF0E03296DF01AA0FBB1FB8
:10130000A00FB11FED92FC923A96EE0FFF1FE00F77
:10131000F11FD182C0821F910F91FF90EF90DF905B
:10132000CF900895FF920F931F938C01F42E0E948B
:101330006D0B085A1E4FF801F0820D5F1F4FF80128
:1013400011821082025D1E4FF8011182108209582D
:101350001240C801835A9E4F075A1E4FF8019183CD
:1013600080830E5C1E4FF80110821F910F91FF9039
:101370000895FF920F931F938C01F42E0E946D0B22
:10138000085A1E4FF801F0820D5F1F4FF8011182BD
:101390001082025D1E4FF80111821082095812401E
:1013A000C801835A9E4F075A1E4FF80191838083CC
:1013B0000E5C1E4FF80110821F910F91FF9008954F
:1013C00006960E947B0A089506960E94870A089551
:1013D00006960E94DE0A08950F931F938C010E94C7
:1013E000DE078FE291E0F80191838083C8010696C1
:1013F0000E94770A1F910F9108950F931F938C01FC
:101400000E94DE078FE291E0F80191838083C8019A
:1014100006960E94770A1F910F9108950F931F93CC
:101420008C010E94DE078FE291E0F80191838083B6
:10143000C80106960E94770A1F910F9108950F9395
:101440001F938C010E94DE078FE291E0F8019183E7
:101450008083C80106960E94770A1F910F91089514
:10146000FC018FE291E091838083CF010E94EA0723
:101470000895FC018FE291E091838083CF010E9467
:10148000EA0708958130910559F46F5F7F4F89F421
:101490008AE992E065E371E042E00E9492090895D2
:1014A000892B39F46F5F7F4F21F48AE992E00E9423
:1014B0000208089580E090E06FEF7FEF0E94420AFB
:1014C000089581E090E06FEF7FEF0E94420A089557
:1014D000CB0162E471E00E94661E9C0180E0232B38
:1014E00009F481E00895FC01138212820895FC0141
:1014F000138212820895FC01A081B181FD01019047
:101500000020E9F7EA1BFB0B3396CF010895AF9259
:10151000BF92CF92DF92EF92FF920F931F93DF93D0
:10152000CF9300D000D0CDB7DEB77C01FB01219175
:1015300031914191519129833A834B835C83D70147
:1015400012960D911C9113975801CC24DD246C91B7
:1015500011967C91A216B306C406D50670F4CB0191
:10156000BF01A8010E945D1ED701ED91FC9111976A
:1015700012968D919C9113970AC0CB01BF01A901CE
:101580000E945D1ED701ED91FC9189819A81E80F3F
:10159000F91F108229813A812C5F3F4FC9010F90BA
:1015A0000F900F900F90CF91DF911F910F91FF90AF
:1015B000EF90DF90CF90BF90AF900895DF93CF93DF
:1015C00000D000D0CDB7DEB79C01DC01EC911196C4
:1015D000FC91DF010D900020E9F7CD0101978E1BF2
:1015E0009F0BA0E0B0E0AC0189839A83AB83BC83FE
:1015F000FB0181939193A193B193D9016C911196C1
:101600007C91CF010E945D1E29813A812C5F3F4F62
:10161000C9010F900F900F900F90CF91DF91089517
:101620000F931F93CF93DF93EC018B018A819B81F2
:10163000892B59F4CB0101960E94FA1C8883998367
:101640001B830A83E881F9811082DF91CF911F917A
:101650000F910895CF92DF92EF92FF920F931F9315
:10166000CF93DF937C01D62EC72EE62FF72FEF0105
:1016700009900020E9F72197CE1BDF0BDC011296C1
:101680008D919C911397892B21F4C701BE010E9473
:10169000100BF701628173816C177D0718F08C2F96
:1016A0006D2F02C0862F672F082F162FD7018D911F
:1016B0009C916D2D7C2DA8010E946F1ED701ED918C
:1016C000FC91E00FF11F1082DF91CF911F910F91DC
:1016D000FF90EF90DF90CF9008950E942A0B08951D
:1016E0000E942A0B089560E070E00E94100B08959C
:1016F00060E070E00E94100B0895FC0180912605C7
:101700008C3090F480838F5F80932605815090E029
:10171000FC01EE0FFF1FE80FF91FE95DFA4F88EBA0
:101720009BE09283818308958FEF80830895FC016D
:10173000809126058C3090F480838F5F80932605FE
:10174000815090E0FC01EE0FFF1FE80FF91FE95DEB
:10175000FA4F88EB9BE09283818308958FEF80831B
:101760000895DC018C9190E0FC01EE0FFF1FE80F63
:10177000F91FE95DFA4F80818F7B80838C916CE04B
:101780000E946D1F9CE0899FA001112420E030E0A1
:10179000C901840F951FFC01EE0FFF1FE80FF91F11
:1017A000E95DFA4F808186FD05C02F5F3F4F2C30E9
:1017B000310571F70895FC0120812C3008F041C0FB
:1017C0008181992787FD909548E850E0481B590B87
:1017D000440F551F440F551F6417750784F082810D
:1017E000992787FD909548E552E0481B590B440F17
:1017F000551F440F551F641775070CF4AB01425079
:101800005040CA01AA2797FDA095BA2F44E0880F3F
:10181000991FAA1FBB1F4A95D1F733E0B695A7952C
:10182000979587953A95D1F74FB7F89430E0F9013D
:10183000EE0FFF1FE20FF31FE95DFA4F92838183E2
:101840004FBF0895FC0180818F3F19F420E030E004
:1018500016C090E0FC01EE0FFF1FE80FF91FE95DD5
:10186000FA4F2181328183E0220F331F8A95E1F7FD
:10187000B4E036952795BA95E1F72E5F3F4FC90141
:101880000895FC01808190E0FC01EE0FFF1FE80F3E
:10189000F91FE95DFA4F8081829586958695817062
:1018A00009F081E00895AF92BF92CF92DF92EF925C
:1018B000FF920F931F938C010E94220C00D000D046
:1018C0000196AA2797FDA095BA2FF8016181772785
:1018D00067FD709528E830E0261B370B220F331F79
:1018E000220F331F442737FD4095542F62817727FD
:1018F00067FD7095E8E5EE2EE2E0FE2EE61AF70AA7
:10190000EE0CFF1CEE0CFF1C0027F7FC0095102FBF
:1019100064EBA62EB12CC12CD12CEDB7FEB7A18261
:10192000B282C382D482BC01CD01AA24BB2465014A
:101930000E943E130F900F900F900F90CB011F91BC
:101940000F91FF90EF90DF90CF90BF90AF900895F0
:10195000AF92BF92CF92DF92EF92FF920F931F93BD
:10196000CF93DF93EC019B0182E0603278070CF0AB
:1019700048C077FF03C020E030E005C0653B71053B
:1019800014F024EB30E000D000D0B901882777FDB7
:101990008095982F2981332727FD3095B8E8AB2E05
:1019A000B12CA21AB30AAA0CBB1CAA0CBB1CCC24D7
:1019B000B7FCC094DC2CEA81FF27E7FDF09528E511
:1019C00032E02E1B3F0B220F331F220F331F442701
:1019D00037FD4095542FEDB7FEB721833283438303
:1019E000548320E030E040E050E0E4EBEE2EF12CB8
:1019F000012D112D0E943E139B010F900F900F900F
:101A00000F90CE01B9010E94DB0BDF91CF911F91A6
:101A10000F91FF90EF90DF90CF90BF90AF9008951F
:101A2000CF92DF92EF92FF921F93CF93DF93EC015F
:101A3000162F7A01690188818C3008F064C0862FE6
:101A400061E00E944215888190E0FC01EE0FFF1FCB
:101A5000E80FF91FE95DFA4F1F738081807C812BAD
:101A6000808380E292E08E199F0964E070E00E941A
:101A7000791F698380E699E08C199D0964E070E024
:101A80000E94791F6A83A8818A2F6CE00E946D1FD3
:101A9000682F90E0AC01440F551F480F591F440FA9
:101AA000551F440F551F20E030E0C901840F951FDA
:101AB000FC01EE0FFF1FE80FF91FE95DFA4F80816F
:101AC00086FD15C02F5F3F4F2C30310571F724C0C4
:101AD0001092800082E08093810010928500109225
:101AE0008400B19A80916F00826080936F008A2F8A
:101AF00090E0FC01EE0FFF1FE80FF91FE95DFA4FC0
:101B00008081806480838881DF91CF911F91FF90D5
:101B1000EF90DF90CF9008956623D1F2E8CF40E2B6
:101B200052E020E639E00E94100D08951F920F92B6
:101B30000FB60F9211242F933F934F935F936F93A0
:101B40007F938F939F93AF93BF93EF93FF93809176
:101B50004B0587FF05C010928500109284002BC0B2
:101B600020914B05332727FD30958091260590E085
:101B70002817390704F580914B05992787FD909523
:101B8000FC01EE0FFF1FE80FF91FE95DFA4F80819E
:101B900086FF11C080914B05992787FD9095FC0128
:101BA000EE0FFF1FE80FF91FE95DFA4F80818F7379
:101BB00060E00E94621580914B058F5F80934B051A
:101BC00020914B05332727FD30958091260590E025
:101BD000281739070CF04EC080914B058C300CF063
:101BE00049C0209184003091850080914B05992750
:101BF00087FD9095FC01EE0FFF1FE80FF91FE95DCF
:101C0000FA4F81819281280F391F309389002093E8
:101C1000880080914B05992787FD9095FC01EE0F78
:101C2000FF1FE80FF91FE95DFA4F808186FF2AC088
:101C300080914B05992787FD9095FC01EE0FFF1FC2
:101C4000E80FF91FE95DFA4F80818F7361E00E9410
:101C5000621518C080E49CE905C0809184009091D1
:101C60008500049690938900809388008FEF80937D
:101C70004B0508C0809184009091850084549C4954
:101C800048F3EBCFFF91EF91BF91AF919F918F916F
:101C90007F916F915F914F913F912F910F900FBE68
:101CA0000F901F9018951F920F920FB60F9211244C
:101CB0002F933F934F935F936F937F938F939F9354
:101CC000AF93BF93EF93FF934091C600E091CC0593
:101CD000F091CD05CF01019660E870E00E94791F78
:101CE0009C018091CE059091CF052817390739F0D6
:101CF000E45BFA4F40833093CD052093CC05FF91F0
:101D0000EF91BF91AF919F918F917F916F915F9173
:101D10004F913F912F910F900FBE0F901F901895EC
:101D20008F92AF92CF92DF92EF92FF920F931F9319
:101D3000DF93CF93CDB7DEB7FC018DE591E09183C2
:101D4000808373836283558344833783268311871B
:101D50000087F386E286D586C486A68687868D852B
:101D6000808B8E85818B8F85828BCF91DF911F91A8
:101D70000F91FF90EF90DF90CF90AF908F900895EC
:101D80008F92AF92CF92DF92EF92FF920F931F93B9
:101D9000DF93CF93CDB7DEB7FC018DE591E0918362
:101DA00080837383628355834483378326831187BB
:101DB0000087F386E286D586C486A68687868D85CB
:101DC000808B8E85818B8F85828BCF91DF911F9148
:101DD0000F91FF90EF90DF90CF90AF908F9008958C
:101DE0005F926F927F928F929F92AF92BF92CF92AB
:101DF000DF92EF92FF920F931F93CF93DF93EC014B
:101E00005A016B0181E4A81682E4B8068FE0C80687
:101E100080E0D80608F077C060E874E88EE190E0D2
:101E2000A60195010E948C1F39014A01089461089E
:101E30007108810891089694879477946794A40117
:101E400093012F5F3F4F4F4F5F4F74E0220F331FBF
:101E5000441F551F7A95D1F760E074E284EF90E05B
:101E60000E948C1FCA01B9012FEF30E040E050E022
:101E70000E944E1FA60195010E948C1F8FEF90E0DB
:101E8000821B930B181619061CF4522E509402C094
:101E9000522E539460E079E08DE390E0A601950125
:101EA0000E948C1F2150304040405040569547952D
:101EB000379527952F5F3F4F4F4F5F4F93E0220F8E
:101EC000331F441F551F9A95D1F760E074E284EFE9
:101ED00090E00E948C1FCA01B9012FEF30E040E072
:101EE00050E00E944E1FA60195010E948C1F8FEFAB
:101EF00090E0821B930B1816190614F4209501C06C
:101F00002F5F2515F0F4E885F98581E090E00A88D7
:101F100002C0880F991F0A94E2F7808360E079E09D
:101F20008DE390E0A60195010E948C1F2150304066
:101F3000404050405695479537952795822F232F3F
:101F400005C0E885F9851082862D272DEC81FD815D
:101F50002083EE81FF818083EA85FB85208141E03B
:101F600050E0CA010E8402C0880F991F0A94E2F75C
:101F7000282B2083EA85FB852081CA010F8402C0BB
:101F8000880F991F0A94E2F7282B2083EA85FB85A6
:101F90008081088802C0440F551F0A94E2F7842B01
:101FA0008083DF91CF911F910F91FF90EF90DF9091
:101FB000CF90BF90AF909F908F907F906F905F90E9
:101FC0000895FC01A285B3854C9121E030E0C90160
:101FD000068402C0880F991F0A94E2F78095842333
:101FE0008C93A285B3854C91C901078402C0880FE8
:101FF000991F0A94E2F7809584238C93A285B38578
:102000008C91008802C0220F331F0A94E2F72095BA
:1020100028232C930895DC011296ED91FC911397DF
:10202000E058FF4F8191919180589F4F20813181DD
:10203000821B930B60E870E00E94791F0895CF9394
:10204000DF93DC011296ED91FC911397EF01CE57CF
:10205000DF4F48815981E058FF4F80819181E058DE
:10206000F0408417950719F42FEF3FEF0CC0E40FF1
:10207000F51F2081CA01019660E870E00E94791F77
:102080009983888330E0C901DF91CF910895DC0105
:102090001296ED91FC911397EE57FF4F808191813D
:1020A000929382930895FC01A085B18521898C913A
:1020B00090E0022E02C0959587950A94E2F780FF82
:1020C000F6CF0484F585E02D608308958DE591E0D9
:1020D0009093D1058093D0058CE495E09093D3053F
:1020E0008093D20585EC90E09093D5058093D4053C
:1020F00084EC90E09093D7058093D60580EC90E037
:102100009093D9058093D80581EC90E09093DB05FE
:102110008093DA0586EC90E09093DD058093DC05F2
:1021200084E08093DE0583E08093DF0587E0809381
:10213000E00585E08093E10581E08093E205089564
:102140000F931F93CF93DF938C01EB0109C021966E
:10215000D801ED91FC910190F081E02DC801099525
:1021600068816623A1F7DF91CF911F910F910895A8
:10217000EF92FF920F931F93CF93DF938C017B011C
:10218000EA010CC0D7016D917D01D801ED91FC9160
:102190000190F081E02DC80109952197209791F7D2
:1021A000DF91CF911F910F91FF90EF900895DC0187
:1021B000ED91FC910280F381E02D099508952F9215
:1021C0003F924F925F926F927F928F929F92AF92C7
:1021D000BF92CF92DF92EF92FF920F931F93DF9304
:1021E000CF93CDB7DEB7A0970FB6F894DEBF0FBE82
:1021F000CDBF1C016A017B014115510561057105C7
:1022000049F440E350E060E070E020E030E00E94FC
:10221000A91154C0882499245401422E55246624BF
:10222000772401E010E00C0F1D1F080D191DC701D8
:10223000B601A30192010E948C1FF80160830894EB
:10224000811C911CA11CB11CC701B601A301920104
:102250000E948C1FC901DA016C017D01C114D104F7
:10226000E104F104F1F681E0E82EF12CEC0EFD1E04
:10227000E80CF91C3E010894611C711CD501C401D5
:102280000197A109B1096C01C818D90814C0F60159
:10229000EE0DFF1D40814A3010F4405D01C0495CE5
:1022A00050E060E070E0C10120E030E00E94A91140
:1022B0000894E108F1086E147F0449F7A0960FB660
:1022C000F894DEBF0FBECDBFCF91DF911F910F916C
:1022D000FF90EF90DF90CF90BF90AF909F908F9046
:1022E0007F906F905F904F903F902F900895DC010A
:1022F0002115310541F4ED91FC910190F081E02D23
:10230000642F099508950E94DF100895EF92FF92BF
:102310000F931F939A017B0100E010E0B801A70121
:102320000E9477111F910F91FF90EF900895EF9207
:10233000FF920F931F939A01E62EFF2400E010E016
:10234000B801A7010E9477111F910F91FF90EF90A4
:102350000895EF92FF920F931F93CF93DF93EC01B9
:102360007A018B012115310541F4E881F981019051
:10237000F081E02D642F09951BC02A303105B1F49E
:1023800077FF10C04DE250E060E070E020E030E008
:102390000E94A91110950095F094E094E11CF11CA5
:1023A000011D111DCE01B801A7012AE00E94DF1016
:1023B000DF91CF911F910F91FF90EF900895EF92D1
:1023C000FF920F931F937B019A010027F7FC009562
:1023D000102FB801A7010E94A9111F910F91FF9022
:1023E000EF900895EF92FF920F931F939A01E62EBC
:1023F000FF2400E010E0B801A7010E94A9111F917D
:102400000F91FF90EF9008950F931F938C014DE073
:1024100050E060E070E020E030E00E94A911C801C7
:102420004AE050E060E070E020E030E00E94A91156
:102430001F910F9108950F931F938C010E947711A4
:10244000C8010E9404121F910F910895CF92DF924C
:10245000EF92FF920F931F938C019A016B01EE2470
:10246000FF24B701A6010E947711C8010E9404123F
:102470001F910F91FF90EF90DF90CF900895CF9232
:10248000DF92EF92FF920F931F938C019A01C62E59
:10249000DD24EE24FF24B701A6010E947711C801B4
:1024A0000E9404121F910F91FF90EF90DF90CF9048
:1024B00008950F931F938C010E94D710C8010E94AA
:1024C00004121F910F9108950F931F938C010E9486
:1024D000A911C8010E9404121F910F910895CF9273
:1024E000DF92EF92FF920F931F938C016B019A0181
:1024F000EE24D7FCE094FE2CB701A6010E94A9119E
:10250000C8010E9404121F910F91FF90EF90DF907D
:10251000CF900895CF92DF92EF92FF920F931F9387
:102520008C019A01C62EDD24EE24FF24B701A601FA
:102530000E94A911C8010E9404121F910F91FF90DF
:10254000EF90DF90CF9008959F92AF92BF92CF927D
:10255000DF92EF92FF920F931F93CF93DF93EC01E3
:102560007A018B01922ECB01BA0120E030E040E0ED
:1025700050E00E94AA1988236CF4CE014DE250E08D
:1025800060E070E020E030E00E94A91117FB109598
:1025900017F9109520E030E040E05FE3AA240BC07B
:1025A000CA01B90120E030E040E251E40E94CE18B7
:1025B0009B01AC01A394A91498F3C801B7010E9430
:1025C000A7175B016C010E94FE157B018C01CE01F7
:1025D000B801A7012AE030E00E947711992029F084
:1025E000CE0163E671E00E94D710C801B7010E94D6
:1025F0008C1A9B01AC01C601B5010E94761722C05E
:1026000020E030E040E251E40E94D4177B018C01CD
:102610000E94381A5B016C01CC24B7FCC094DC2CFE
:10262000CE01B601A5012AE030E00E94A911C60141
:10263000B5010E94DA199B01AC01C801B7010E94E3
:1026400076179A949920E1F6DF91CF911F910F911F
:10265000FF90EF90DF90CF90BF90AF909F90089544
:102660000E94A41208950F931F938C010E94A4123C
:10267000C8010E9404121F910F9108952F923F925A
:102680004F925F926F927F928F929F92AF92BF9282
:10269000CF92DF92EF92FF920F931F93DF93CF932E
:1026A000CDB7DEB73B014C0119012A016D897E8946
:1026B0008F89988D6A197B098C099D09621A730AA2
:1026C000840A950AA40193010E944E1FE218F308A0
:1026D00004091509A80197010E94AE1F2A0D3B1D90
:1026E0004C1D5D1DB901CA01CF91DF911F910F9162
:1026F000FF90EF90DF90CF90BF90AF909F908F9022
:102700007F906F905F904F903F902F900895089525
:1027100070E0382F20E0622B732BCB010895EF92ED
:10272000FF920F931F937B018C0161157105810549
:10273000910529F420E030E040E050E00BC00E9419
:102740004F1EA80197010E94AE1FAC01CB01DA0118
:102750009C01AD01B901CA011F910F91FF90EF904B
:102760000895EF92FF920F931F937B018C016217E4
:1027700073078407950764F4261B370B480B590B26
:10278000CA01B9010E948F13E60EF71E081F191F18
:10279000B701C8011F910F91FF90EF900895009726
:1027A00029F0BC0180E090E00E94541E08950E9430
:1027B0008E140E9470010E94D000FDCF1F920F92D4
:1027C0000FB60F9211242F933F938F939F93AF9344
:1027D000BF938091E7059091E805A091E905B0913C
:1027E000EA053091EB050196A11DB11D232F2D5F48
:1027F0002D3720F02D570196A11DB11D2093EB051B
:102800008093E7059093E805A093E905B093EA0566
:102810008091E3059091E405A091E505B091E6056E
:102820000196A11DB11D8093E3059093E405A0934B
:10283000E505B093E605BF91AF919F918F913F91D0
:102840002F910F900FBE0F901F9018958FB7F8948F
:102850002091E7053091E8054091E9055091EA059E
:102860008FBFB901CA0108959FB7F8942091E3057D
:102870003091E4054091E5055091E60586B5A89BA9
:1028800006C08F3F21F02F5F3F4F4F4F5F4F9FBFDD
:10289000542F432F322F2227280F311D411D511D48
:1028A00082E0220F331F441F551F8A95D1F7B901CB
:1028B000CA010895EF92FF920F931F937B018C0141
:1028C0008FB7F8944091E7055091E8056091E905CC
:1028D0007091EA058FBF2FB7F8948091E70590912A
:1028E000E805A091E905B091EA052FBF841B950B7F
:1028F000A60BB70BE816F9060A071B0760F71F912E
:102900000F91FF90EF900895019739F0880F991F6C
:10291000880F991F02970197F1F70895789484B56D
:10292000826084BD84B5816084BD85B5826085BDCB
:1029300085B5816085BDEEE6F0E0808181608083B1
:10294000E1E8F0E080818260808380818160808323
:10295000E0E8F0E0808181608083E1EBF0E080815D
:1029600084608083E0EBF0E0808181608083EAE72F
:10297000F0E08081846080838081826080838081B8
:10298000816080838081806880831092C100089577
:1029900080936F010895877090916F019295990FC0
:1029A000990F907C982B90937C0080917A008064A2
:1029B00080937A0080917A0086FDFCCF2091780088
:1029C00040917900942F80E030E0282B392BC90109
:1029D00008951F93CF93DF93182FEB0161E00E94BE
:1029E0004215E12FF0E0E255FF4F8491833051F41E
:1029F00080918000806880938000D0938900C0938C
:102A000088003CC0843051F48091800080628093C3
:102A10008000D0938B00C0938A0030C0813039F49D
:102A2000209729F184B5806884BDC7BD27C0823056
:102A300039F42097E1F084B5806284BDC8BD1EC022
:102A4000863041F48091B00080688093B000C093DC
:102A5000B30014C0873041F48091B000806280934D
:102A6000B000C093B4000AC0C038D1051CF4812F57
:102A700060E002C0812F61E00E946215DF91CF917A
:102A80001F910895282F30E0C90186569F4FFC0101
:102A900094912A573F4FF9018491882391F0E82FB0
:102AA000F0E0EE0FFF1FE859FF4FA591B4916623A8
:102AB00029F48C91909589238C9308958C91892B7E
:102AC0008C930895482F50E0CA0182559F4FFC0116
:102AD0002491CA0186569F4FFC0194914A575F4F3B
:102AE000FA0134913323D1F1222331F1233021F43F
:102AF000809180008F7705C0243031F48091800070
:102B00008F7D8093800018C0213019F484B58F77B1
:102B100004C0223021F484B58F7D84BD0DC02630E1
:102B200021F48091B0008F7705C0273029F480917F
:102B3000B0008F7D8093B000E32FF0E0EE0FFF1F19
:102B4000EE58FF4FA591B491662329F48C9190958E
:102B500089238C9308958C91892B8C930895682FE9
:102B600070E0CB0182559F4FFC012491CB0186562A
:102B70009F4FFC0144916A577F4FFB019491992329
:102B800019F420E030E038C0222331F1233021F461
:102B9000809180008F7705C0243031F480918000CF
:102BA0008F7D8093800018C0213019F484B58F7711
:102BB00004C0223021F484B58F7D84BD0DC0263041
:102BC00021F48091B0008F7705C0273029F48091DF
:102BD000B0008F7D8093B000892F90E0880F991FFF
:102BE00084589F4FFC01A591B4918C9120E030E076
:102BF000842311F021E030E0C9010895EF92FF92A3
:102C00000F931F937B018C0120E030E040E05FE4F4
:102C10000E947A1988238CF0C801B70120E030E0C7
:102C200040E05FE40E9476170E94381A9B01AC01D5
:102C3000205030404040504806C0C801B7010E94B3
:102C4000381A9B01AC01B901CA011F910F91FF9085
:102C5000EF900895A0E0B0E0E0E3F6E10C94DD1F12
:102C6000DC012B01FA019C91923008F439C1EB018F
:102C70008881823008F433C1943069F4843009F0DB
:102C80002FC111969C9111978981981709F428C139
:102C9000A0E7B1E025C1843009F421C18230A9F454
:102CA000923009F01DC19A01AD0188E0EA01099056
:102CB000AE01E90109929E018150C1F7E2018981CB
:102CC00011969C918923818308C1923009F407C130
:102CD00012962D903C901397EB018A819B8114965C
:102CE000AD90BD90CD90DC901797EC80FD800E816B
:102CF0001F819101281B390BB90137FF04C06627DA
:102D00007727621B730B603271050CF061C01216DD
:102D100013066CF537014801062E04C0969487947B
:102D2000779467940A94D2F721E030E040E050E0D5
:102D300004C0220F331F441F551F6A95D2F721503C
:102D40003040404050402E213F2140235123211547
:102D500031054105510521F021E030E040E050E02F
:102D600079018A01E628F728082919293CC0232B74
:102D7000D1F1260E371E35014601062E04C0969469
:102D80008794779467940A94D2F721E030E040E08A
:102D900050E004C0220F331F441F551F6A95D2F71D
:102DA00021503040404050402A213B214C215D21A0
:102DB000211531054105510521F021E030E040E0C9
:102DC00050E059016A01A628B728C828D9280BC0A5
:102DD000821593052CF01C01AA24BB24650103C0B5
:102DE000EE24FF24870111969C91D20111968C91BB
:102DF000981709F445C0992339F0A80197012A19B9
:102E00003B094C095D0906C0A60195012E193F0931
:102E1000400B510B57FD08C011823382228224835C
:102E20003583468357831DC081E0818333822282AC
:102E300088279927DC01821B930BA40BB50B848395
:102E40009583A683B7830DC0220F331F441F551FE0
:102E500024833583468357838281938101979383AB
:102E600082832481358146815781DA01C901019726
:102E7000A109B1098F5F9F4FAF4FBF4328F30BC02C
:102E8000918333822282EA0CFB1C0C1D1D1DE482FF
:102E9000F5820683178383E0808324813581468110
:102EA000578157FF1AC0C901AA2797FDA095BA2FCD
:102EB00081709070A070B0705695479537952795A2
:102EC000822B932BA42BB52B84839583A683B78366
:102ED00082819381019693838283DF0101C0D201B5
:102EE000CD01CDB7DEB7E2E10C94F91FA0E2B0E06E
:102EF000ECE7F7E10C94E91F69837A838B839C8369
:102F00002D833E834F835887E9E0EE2EF12CEC0EA3
:102F1000FD1ECE010196B7010E94291C8E010F5E95
:102F20001F4FCE010596B8010E94291C8A8991E0A5
:102F300089278A8BC701B801AE01475E5F4F0E94A7
:102F40002A160E94541BA096E6E00C940520A0E2ED
:102F5000B0E0EDEAF7E10C94E91F69837A838B8393
:102F60009C832D833E834F835887F9E0EF2EF12C0D
:102F7000EC0EFD1ECE010196B7010E94291C8E01A8
:102F80000F5E1F4FCE010596B8010E94291CC70194
:102F9000B801AE01475E5F4F0E942A160E94541B83
:102FA000A096E6E00C940520A0E2B0E0EAEDF7E19F
:102FB0000C94DD1F69837A838B839C832D833E83EE
:102FC0004F835887CE010196BE01675F7F4F0E94F5
:102FD000291CCE010596BE016F5E7F4F0E94291C01
:102FE0009985923088F089898230C8F0943019F43C
:102FF000823051F404C0843029F4923081F480E7A7
:1030000091E0C6C0923049F420E09A858A899813ED
:1030100021E02A87CE010996BBC0823049F420E026
:103020009A858A89981321E02A8BCE014196B0C0F7
:103030002D843E844F8458886D887E888F88988C34
:10304000EE24FF248701AA24BB24650140E050E060
:1030500060E070E0E0E0F0E0C10181709070892BE9
:10306000E9F0E60CF71C081D191D9A01AB012A0DA9
:103070003B1D4C1D5D1D80E090E0A0E0B0E0E6143B
:10308000F7040805190520F481E090E0A0E0B0E025
:10309000BA01A901480F591F6A1F7B1FAA0CBB1C4C
:1030A000CC1CDD1C97FE08C081E090E0A0E0B0E001
:1030B000A82AB92ACA2ADB2A3196E032F10549F05A
:1030C000660C771C881C991C569447943794279457
:1030D000C3CFFA85EA892B893C898B859C85280F8B
:1030E000391F2E5F3F4F17C0CA0181709070892B26
:1030F00061F016950795F794E79480E090E0A0E0E2
:10310000B0E8E82AF92A0A2B1B2B76956795579584
:1031100047952F5F3F4F77FDE7CF0CC0440F551FFA
:10312000661F771F17FD4160EE0CFF1C001F111F6B
:1031300021503040403090E0590790E0690790E41A
:10314000790760F32B8F3C8FDB01CA018F7790707A
:10315000A070B07080349105A105B10561F447FD00
:103160000AC0E114F1040105110529F0405C5F4F2C
:103170006F4F7F4F40781A8EFE1711F081E08A8FD3
:103180004D8F5E8F6F8F78A383E0898FCE01499634
:103190000E94541BA096E2E10C94F91FA8E1B0E054
:1031A000E4EDF8E10C94E51F69837A838B839C83BB
:1031B0002D833E834F835887B9E0EB2EF12CEC0E24
:1031C000FD1ECE010196B7010E94291C8E010F5EE3
:1031D0001F4FCE010596B8010E94291C2985223077
:1031E00008F47EC03989323010F4B8017CC08A8579
:1031F0009A8989278A87243011F0223031F42317E5
:1032000009F06EC060E771E06EC0343039F41D869D
:103210001E861F86188A1C861B8604C0323021F445
:1032200084E08987B7015FC02B853C858B899C89A9
:10323000281B390B3C872B87ED84FE840F8518896A
:10324000AD88BE88CF88D88CEA14FB040C051D0518
:1032500040F4EE0CFF1C001F111F215030403C8732
:103260002B8720E030E040E050E080E090E0A0E0FC
:10327000B0E460E070E0EA14FB040C051D0540F0CA
:10328000282B392B4A2B5B2BEA18FB080C091D094C
:10329000B695A79597958795EE0CFF1C001F111FFB
:1032A0006F5F7F4F6F31710531F7DA01C9018F7799
:1032B0009070A070B07080349105A105B10561F4E3
:1032C00027FD0AC0E114F1040105110529F0205C75
:1032D0003F4F4F4F5F4F20782D873E874F87588B4A
:1032E000BE01675F7F4FCB010E94541B6896EAE0E6
:1032F0000C940120A8E1B0E0E0E8F9E10C94E91FAA
:1033000069837A838B839C832D833E834F83588785
:1033100089E0E82EF12CEC0EFD1ECE010196B701DE
:103320000E94291C8E010F5E1F4FCE010596B80129
:103330000E94291C8985823040F08989823028F0DA
:10334000C701B8010E94A11C01C08FEF6896E6E09A
:103350000C940520A8E1B0E0E0EBF9E10C94E91F42
:1033600069837A838B839C832D833E834F83588725
:1033700089E0E82EF12CEC0EFD1ECE010196B7017E
:103380000E94291C8E010F5E1F4FCE010596B801C9
:103390000E94291C8985823040F08989823028F07A
:1033A000C701B8010E94A11C01C081E06896E6E057
:1033B0000C940520A8E0B0E0E0EEF9E10C94E61FE3
:1033C0009B01AC0183E08983DA01C9018827B7FD3D
:1033D00083959927AA27BB27B82E211531054105CA
:1033E000510519F482E089833AC08823A9F020307E
:1033F00080E0380780E0480780E8580729F460E05B
:1034000070E080E09FEC30C0EE24FF248701E21AD8
:10341000F30A040B150B02C079018A018EE1C82E54
:10342000D12CDC82CB82ED82FE820F831887C8010B
:10343000B7010E94051B01971816190684F4082E7F
:1034400004C0EE0CFF1C001F111F0A94D2F7ED827E
:10345000FE820F831887C81AD90ADC82CB82BA820F
:10346000CE0101960E94541B2896E9E00C9402209C
:10347000ACE0B0E0EEE3FAE10C94ED1F69837A83EF
:103480008B839C83CE010196BE016B5F7F4F0E94B0
:10349000291C8D81823061F1823050F1843021F419
:1034A0008E81882351F12EC02F81388537FD20C0B1
:1034B0006E812F3131051CF06623F9F023C08EE1B7
:1034C00090E0821B930B29853A854B855C8504C06F
:1034D00056954795379527958A95D2F76623B1F08B
:1034E00050954095309521953F4F4F4F5F4F0EC0FF
:1034F00020E030E040E050E009C02FEF3FEF4FEF19
:103500005FE704C020E030E040E050E8B901CA01C4
:103510002C96E2E00C940920A8E0B0E0E2E9FAE1A0
:103520000C94E51F7B018C016115710581059105E6
:1035300019F482E0898360C083E089838EE1C82E1C
:10354000D12CDC82CB82ED82FE820F831887C801EA
:10355000B7010E94051BFC013197F7FF3BC02227F2
:1035600033272E1B3F0B57016801022E04C0D6944F
:10357000C794B794A7940A94D2F740E050E060E073
:1035800070E081E090E0A0E0B0E004C0880F991FF7
:10359000AA1FBB1F2A95D2F70197A109B1098E2155
:1035A0009F21A023B1230097A105B10521F041E09F
:1035B00050E060E070E04A295B296C297D294D8349
:1035C0005E836F8378878EE190E08E1B9F0B9C83D8
:1035D0008B8312C0309781F00E2E04C0EE0CFF1CBE
:1035E000001F111F0A94D2F7ED82FE820F83188705
:1035F000CE1ADF0ADC82CB821A82CE0101960E94AB
:10360000541B2896EAE00C940120EF92FF920F934E
:103610001F937B018C0180E0E81680E0F80681E0D2
:10362000080780E0180788F48FEFE816F104010519
:10363000110531F028F088E090E0A0E0B0E017C07C
:1036400080E090E0A0E0B0E012C080E0E81680E00A
:10365000F80680E0080781E0180728F088E190E08C
:10366000A0E0B0E004C080E190E0A0E0B0E020E2A3
:1036700030E040E050E0281B390B4A0B5B0B04C0E4
:1036800016950795F794E7948A95D2F7F701E858CD
:10369000FE4F8081281B310941095109C9011F9141
:1036A0000F91FF90EF900895DF92EF92FF920F93AA
:1036B0001F93FC01E480F58006811781D180808111
:1036C000823048F480E090E0A0E1B0E0E82AF92AF6
:1036D0000A2B1B2BA5C0843009F49FC0823021F433
:1036E000EE24FF24870105C0E114F1040105110552
:1036F00019F4E0E0F0E096C0628173819FEF6238D8
:1037000079070CF05BC022E83FEF261B370B2A310C
:1037100031052CF020E030E040E050E02AC0B80154
:10372000A701022E04C076956795579547950A9490
:10373000D2F781E090E0A0E0B0E004C0880F991FCC
:10374000AA1FBB1F2A95D2F70197A109B1098E21A3
:103750009F21A023B1230097A105B10521F081E0AD
:1037600090E0A0E0B0E09A01AB01282B392B4A2B66
:103770005B2BDA01C9018F779070A070B070803434
:103780009105A105B10539F427FF09C0205C3F4F21
:103790004F4F5F4F04C0215C3F4F4F4F5F4FE0E002
:1037A000F0E02030A0E03A07A0E04A07A0E45A0782
:1037B00010F0E1E0F0E079018A0127C0603871057E
:1037C00064F5FB01E158FF4FD801C7018F77907076
:1037D000A070B07080349105A105B10539F4E7FE01
:1037E0000DC080E490E0A0E0B0E004C08FE390E082
:1037F000A0E0B0E0E80EF91E0A1F1B1F17FF05C06E
:1038000016950795F794E794319687E016950795F6
:10381000F794E7948A95D1F705C0EE24FF24870139
:10382000EFEFF0E06E2F679566276795902F9F77F3
:10383000D794DD24D7948E2F8695492F462B582F69
:103840005D29B701CA011F910F91FF90EF90DF90A2
:103850000895FC01DB01408151812281622F6F7745
:1038600070E0221F2227221F9381892F880F822B2D
:10387000282F30E0991F9927991F11969C93119733
:1038800021153105A9F5411551056105710511F4A1
:1038900082E037C082E89FEF13969C938E93129735
:1038A0009A01AB0167E0220F331F441F551F6A9531
:1038B000D1F783E08C930DC0220F331F441F551F97
:1038C00012968D919C911397019713969C938E93CA
:1038D0001297203080E0380780E0480780E45807DE
:1038E00058F314962D933D934D935C931797089539
:1038F0002F3F310579F4411551056105710519F422
:1039000084E08C93089564FF03C081E08C9312C01F
:103910001C9210C02F57304013963C932E93129751
:1039200083E08C9387E0440F551F661F771F8A95AD
:10393000D1F7706414964D935D936D937C931797B4
:1039400008951F93DC01FB019C91923008F447C05D
:103950008081823008F443C0943051F411961C9158
:10396000843099F58181682F70E0611B71093FC037
:10397000843021F0923031F48230B9F18181882392
:1039800089F12DC011961C9111978230F1F081813F
:103990001817D9F412962D913C9113978281938137
:1039A0008217930794F028173907BCF014968D916D
:1039B0009D910D90BC91A02D248135814681578128
:1039C000281739074A075B0718F4112341F00AC08A
:1039D00082179307A407B50740F4112319F061E09B
:1039E00070E005C06FEF7FEF02C060E070E0CB01D8
:1039F0001F910895CF93DF93BC018230910510F49D
:103A000062E070E0A091EE05B091EF05ED01E0E01D
:103A1000F0E040E050E021C0888199818617970747
:103A200069F48A819B81309719F09383828304C063
:103A30009093EF058093EE05FE0134C06817790777
:103A400038F44115510519F08417950708F4AC01B5
:103A5000FE018A819B819C01E9012097E9F64115CD
:103A60005105A9F1CA01861B970B049708F4BA0106
:103A7000E0E0F0E02AC08D919C91119784179507A2
:103A8000F9F46417750781F412968D919C91139740
:103A9000309719F09383828304C09093EF0580934D
:103AA000EE05FD0132964CC0CA01861B970BFD0145
:103AB000E80FF91F6193719302978D939C9340C017
:103AC000FD01828193819C01D9011097A1F680911B
:103AD000EC059091ED05892B41F480917A0290914B
:103AE0007B029093ED058093EC0540917C02509110
:103AF0007D024115510541F44DB75EB780917802C2
:103B000090917902481B590B2091EC053091ED05FD
:103B1000CA01821B930B8617970780F0AB014E5F9B
:103B20005F4F8417950750F0420F531F5093ED05D8
:103B30004093EC05F9016193719302C0E0E0F0E07D
:103B4000CF01DF91CF910895CF93DF93009709F4D0
:103B500050C0EC0122971B821A82A091EE05B09111
:103B6000EF05109709F140E050E0AC17BD0708F1F0
:103B7000BB83AA83FE0121913191E20FF31FAE179F
:103B8000BF0779F48D919C911197280F391F2E5FF3
:103B90003F4F3983288312968D919C9113979B8375
:103BA0008A834115510571F4D093EF05C093EE055A
:103BB00020C012968D919C911397AD01009711F042
:103BC000DC01D3CFFA01D383C28321913191E20F7B
:103BD000F31FCE17DF0769F488819981280F391FF9
:103BE0002E5F3F4FFA01318320838A819B8193832B
:103BF0008283DF91CF910895A0E0B0E0E2E0FEE1A2
:103C00000C94E51FEC01A880B980CA80DB80A11468
:103C1000B104C104D10441F484E2A82E89EDB82E88
:103C20008BE5C82E87E0D82EC601B5012DE133EF14
:103C300041E050E00E94AE1F27EA31E440E050E04E
:103C40000E944E1F7B018C01C601B5012DE133EFAF
:103C500041E050E00E94AE1FCA01B9012CEE34EFE2
:103C60004FEF5FEF0E944E1F6E0D7F1D801F911F53
:103C700097FF04C06150704080409048688379830A
:103C80008A839B839B01AC015F77B901CA01CDB7E1
:103C9000DEB7EAE00C9401200E94FC1D08958EE737
:103CA00092E00E94FC1D089560937E0270937F0253
:103CB00080938002909381020895FB01DC0102C091
:103CC00001900D9241505040D8F70895FB01DC015E
:103CD0008D91019080190110D9F3990B0895FB0182
:103CE000DC014150504048F001900D920020C9F78E
:103CF00001C01D9241505040E0F708950F931F936B
:103D0000CF93DF938C01EB01009731F461157105BE
:103D100019F420E030E038C081E090E06EE070E01F
:103D20000E942B1FFC019C01009771F180E88383A6
:103D3000209771F0D387C28781E883838091F00553
:103D40009091F105892B21F4F093F105E093F005B2
:103D500001151105C9F01187008783818260838373
:103D60008091F2059091F305892B71F4F093F3059E
:103D7000E093F2058091F4059091F505892B21F4EB
:103D8000F093F505E093F405C901DF91CF911F9100
:103D90000F9108950F931F93CF93DF938C01EB0145
:103DA0008B8181FF1BC082FF0DC02E813F818C81E2
:103DB0009D812817390764F4E881F9810193F9831B
:103DC000E88306C0E885F985802F0995892B31F4B1
:103DD0008E819F8101969F838E8302C00FEF1FEF1C
:103DE000C801DF91CF911F910F910895A0E0B0E03D
:103DF000ECEFFEE10C94E31FFC014B015A01690159
:103E0000D90113968C9181FF1EC07F01C0E0D0E0E4
:103E100014C0D6011896ED91FC911997D7018C9199
:103E2000B6010995892B89F40894E11CF11C0F5FF8
:103E30001F4F0815190568F32196CA15DB0528F4EC
:103E400000E010E0F6CFC0E0D0E0CE01CDB7DEB7A5
:103E5000ECE00C94FF1F0F931F93CF93DF93689FA9
:103E60008001699F100D789F100D1124C8010E94D8
:103E7000FA1CEC01009729F060E070E0A8010E94B4
:103E8000471FCE01DF91CF911F910F910895DC0163
:103E900001C06D9341505040E0F70895629FD001FA
:103EA000739FF001829FE00DF11D649FE00DF11DF5
:103EB000929FF00D839FF00D749FF00D659FF00DA4
:103EC0009927729FB00DE11DF91F639FB00DE11D91
:103ED000F91FBD01CF0111240895991B79E004C099
:103EE000991F961708F0961B881F7A95C9F7809539
:103EF000089597FB092E07260AD077FD04D049D0F4
:103F000006D000201AF4709561957F4F0895F6F75A
:103F1000909581959F4F0895A1E21A2EAA1BBB1B75
:103F2000FD010DC0AA1FBB1FEE1FFF1FA217B30785
:103F3000E407F50720F0A21BB30BE40BF50B661F9B
:103F4000771F881F991F1A9469F76095709580955F
:103F500090959B01AC01BD01CF01089597FB092EFF
:103F600005260ED057FD04D0D7DF0AD0001C38F448
:103F700050954095309521953F4F4F4F5F4F089595
:103F8000F6F790958095709561957F4F8F4F9F4F75
:103F90000895AA1BBB1B51E107C0AA1FBB1FA61790
:103FA000B70710F0A61BB70B881F991F5A95A9F7E2
:103FB00080959095BC01CD0108952F923F924F922C
:103FC0005F926F927F928F929F92AF92BF92CF92A9
:103FD000DF92EF92FF920F931F93CF93DF93CDB7B2
:103FE000DEB7CA1BDB0B0FB6F894DEBF0FBECDBF2A
:103FF00009942A88398848885F846E847D848C84FB
:104000009B84AA84B984C884DF80EE80FD800C8103
:104010001B81AA81B981CE0FD11D0FB6F894DEBFE6
:104020000FBECDBFED010895EE0FFF1F0590F49177
:10403000E02D099410E0CAECD0E004C0FE010E941B
:0E40400016202296CE3CD107C9F7F894FFCF88
:10404E00726573706F6E73656176726C6173657293
:10405E00766563746F7200000000002507CA06C7FC
:10406E000600000000A700A700A70000000000E85F
:10407E0009E409E00963616C6C526573706F6E73CD
:10408E006500726573706F6E73656176726C6173C5
:10409E006572766563746F7200000000005310A0A5
:1040AE0010B8102E0000000000A700A010B81001DC
:1040BE0000000000000000000001020203030303E1
:1040CE00040404040404040405050505050505059A
:1040DE00050505050505050506060606060606067A
:1040EE000606060606060606060606060606060662
:1040FE00060606060606060607070707070707074A
:10410E000707070707070707070707070707070731
:10411E000707070707070707070707070707070721
:10412E000707070707070707070707070707070711
:10413E0007070707070707070808080808080808F9
:10414E0008080808080808080808080808080808E1
:10415E0008080808080808080808080808080808D1
:10416E0008080808080808080808080808080808C1
:10417E0008080808080808080808080808080808B1
:10418E0008080808080808080808080808080808A1
:10419E000808080808080808080808080808080891
:1041AE000808080808080808080808080808080881
:1041BE0008080808080808082000F6050000010095
:0241CE000000EF
:00000001FF
